:10000000733084000730FE00BE30FF0011208000F6
:10001000840A04087B3A03191528FF0A0319FE0A0B
:1000200006287E088A007F08820083177B308400C0
:100030007E300A128A1122200A128A1183010A12C2
:100040008A112A2864008001840A040603190034F6
:10005000040623280310003003180130A0000A1200
:100060008A11AC240A128A110A128A15B2230A12C2
:100070008A1100300A128A15FA230A128A111830DE
:1000800083120313A8000730A9000A128A159B24C3
:100090000A128A1114300A128A15FA230A128A11D6
:1000A0008312031320088313A1002107733E8400E9
:1000B0000008A800840A0008A9000A128A159B24D7
:1000C0000A128A1183120313881A67286828A02845
:1000D0006A286A28881E6D286E2869280130A100C8
:1000E0002108A00703302002031C772878287D28E8
:1000F0000310003003180130A00014300A128A15D2
:10010000FA230A128A118312031320088313A10011
:100110002107733E84000008A800840A0008A90093
:100120000A128A159B240A128A11E63083120313DD
:10013000A8000630A9000A128A159B240A128A1107
:1001400083120313081AA528A628CF28A828A828B0
:10015000081EAB28AC28A728C6280A128A115225E7
:100160000A128A11CF280A128A11DA210A128A1178
:10017000CF280A128A1108240A128A110310831246
:100180000313003003180130A000CF282008831388
:10019000013A0319AD28033A0319B328B928622894
:0601A0000A128A1100287A
:1001B000891081300A128A15A0230A128A11003090
:1001C0000A128A15A0230A128A1108300A128A1507
:1001D000A0230A128A1100300A128A15A0230A12DB
:1001E0008A116E300A128A15A0230A128A118030F1
:1001F0000A128A15A0230A128A1100300A128A15DF
:10020000A0230A128A118312031389140A128A1571
:10021000B2230A128A1100300A128A15FA230A122E
:100220008A116D3083120313A8000630A9000A1248
:100230008A159B240A128A1114300A128A15FA238D
:100240000A128A117D3083120313A8000630A90018
:100250000A128A159B240A128A11F830831203139A
:10026000A8001130A9000A128A1518240A128A114E
:100270000A128A15B2230A128A1100300A128A154C
:10028000FA230A128A116B3083120313A800073075
:10029000A9000A128A159B240A128A1183120313D9
:1002A00088150800A4010314A40D0A128A15B223AC
:1002B0000A128A1100300A128A15FA230A128A11C8
:1002C000B73083120313A8000730A9000A128A1559
:1002D0009B240A128A1114300A128A15FA230A1270
:1002E0008A113D3083120313A8000630A9000A12B8
:1002F0008A159B240A128A1183120313881A8129F2
:100300008229B42984298429881E87298829832958
:100310000130A5002508A40714300A128A15FA2313
:100320000A128A11AC294D30A8000630A9000A1221
:100330008A159B240A128A11B4293D30A800063080
:10034000A9000A128A159B240A128A118312031328
:10035000A4010314A40DB4298312031324088313E6
:10036000023A031993299D2983120313081AB92904
:10037000BA29D829BC29BC29081EBF29C029BB29F4
:10038000D2290A128A15C6240A128A11D8290A12F9
:100390008A1176230A128A1183120313A40103140B
:1003A000A40DD82924088313023A0319C129C729A7
:1003B0007C290800A2010314A20D0A128A15B22397
:1003C0000A128A1100300A128A15FA230A128A11B7
:1003D000963083120313A8000730A9000A128A1569
:1003E0009B240A128A1114300A128A15FA230A125F
:1003F0008A115D3083120313A8000630A9000A1287
:100400008A159B240A128A1183120313881A092A57
:100410000A2A3C2A0C2A0C2A881E0F2A102A0B2A88
:100420000130A3002308A20714300A128A15FA2308
:100430000A128A11342A8D30A8000630A9000A1247
:100440008A159B240A128A113C2A5D30A8000630C6
:10045000A9000A128A159B240A128A118312031317
:10046000A2010314A20D3C2A831203132208831352
:10047000023A03191B2A252A83120313081A412A58
:10048000422A602A442A442A081E472A482A432A24
:100490005A2A0A128A1503250A128A11602A0A1298
:1004A0008A154F250A128A1183120313A20103141D
:1004B000A20D602A22088313023A0319492A4F2AFF
:1004C000042A080083120313A6010314A60D0A12BE
:1004D0008A15B2230A128A1100300A128A15FA23E9
:1004E0000A128A119F3083120313A8000730A90053
:1004F0000A128A159B240A128A1114300A128A15CC
:10050000FA230A128A11D93083120313A800063085
:10051000A9000A128A159B240A128A118312031356
:10052000881A932A942AC62A962A962A881E992AD5
:100530009A2A952A0130A7002708A60714300A1224
:100540008A15FA230A128A11BE2AF330A80006304F
:10055000A9000A128A159B240A128A11C62AD930C8
:10056000A8000630A9000A128A159B240A128A11D3
:1005700083120313A6010314A60DC62A83120313C4
:1005800026088313023A0319A52AAF2A83120313FC
:10059000081ACB2ACC2AEA2ACE2ACE2A081ED12A29
:1005A000D22ACD2AE42A0A128A15FE260A128A11B4
:1005B000EA2A0A128A11D8200A128A118312031316
:1005C000A6010314A60DEA2A26088313023A03198A
:1005D000D32AD92A8E2A0800A4010314A40D0A12D2
:1005E0008A15B2230A128A1100300A128A15FA23D8
:1005F0000A128A11B73083120313A8000730A9002A
:100600000A128A159B240A128A1114300A128A15BA
:10061000FA230A128A113D3083120313A800063010
:10062000A9000A128A159B240A128A118312031345
:10063000881A1B2B1C2B4E2B1E2B1E2B881E212B8E
:10064000222B1D2B0130A5002508A40714300A1207
:100650008A15FA230A128A11462B4D30A80006305B
:10066000A9000A128A159B240A128A114E2B3D30CA
:10067000A8000630A9000A128A159B240A128A11C2
:1006800083120313A4010314A40D4E2B831203132E
:1006900024088313023A03192D2B372B83120313DB
:1006A000081A532B542B742B562B562B081E592BE0
:1006B0005A2B552B6E2B88150A128A159B250A1268
:1006C0008A11742B88110A128A159B250A128A1125
:1006D00083120313A4010314A40D742B24088313A1
:1006E000023A03195B2B622B162B08008910E030AD
:1006F0000A128A15A0230A128A1100300A128A15DA
:10070000A0230A128A118312031389140A30A80045
:100710000030A9000A128A1518240A128A118312BD
:100720000313891020300A128A15A0230A128A1195
:1007300000300A128A15A0230A128A1183120313A9
:1007400089140A30A8000030A9000A128A1518245A
:100750000A128A1183120313891080300A128A1533
:10076000A0230A128A1100300A128A15A0230A1245
:100770008A118312031389140A30A8000030A900DB
:100780000A128A1518240A128A1183120313881177
:10079000891020300A128A15A0230A128A1100300B
:1007A0000A128A15A0230A128A11831203138914CC
:1007B0000A30A8000030A9000A128A1518240A126B
:1007C0008A11831203138910A2300A128A15A023FA
:1007D0000A128A1100300A128A15A0230A128A11FD
:1007E00020300A128A15A0230A128A1183120313D9
:1007F00089140A30A8000030A9000A128A151824AA
:100800000A128A110A128A1162220A128A11080037
:10081000A2010314A20D891080300A128A15A023A8
:100820000A128A1100300A128A15A0230A128A11AC
:100830008312031389140A30A8000030A9000A1299
:100840008A1518240A128A118312031388150A12B2
:100850008A15B2230A128A1100300A128A15FA2365
:100860000A128A11303083120313A8000730A9003E
:100870000A128A159B240A128A1114300A128A1548
:10088000FA230A128A11763083120313A800073064
:10089000A9000A128A159B240A128A1183120313D3
:1008A000881A532C542C862C562C562C881E592CC6
:1008B0005A2C552C0130A3002308A20714300A1229
:1008C0008A15FA230A128A117E2C8C30A800073070
:1008D000A9000A128A159B240A128A11862C7630E6
:1008E000A8000730A9000A128A159B240A128A114F
:1008F00083120313A2010314A20D862C8312031387
:1009000022088313023A0319652C6F2C83120313F8
:10091000081A8B2C8C2CAA2C8E2C8E2C081E912C19
:10092000922C8D2CA42C0A128A1152210A128A119F
:10093000AA2C0A128A1578270A128A118312031325
:10094000A2010314A20DAA2C22088313023A031950
:10095000932C992C4E2C080003108316031300309F
:1009600003180130850003100030031801308600A1
:100970000310003003180130870030308800031066
:100980000030031801308900031083120313003074
:10099000031801308500031000300318013088006F
:1009A000031000300318013089000630831603134A
:1009B0009F008312031388150514071409150130CD
:1009C0000A128A15E0230A128A1102300A128A15C5
:1009D000E0230A128A1106300A128A15E0230A124D
:1009E0008A110C300A128A15E0230A128A11383053
:1009F0000A128A15E0230A128A1183160313811240
:100A000081110115811401140A128A1593230A1207
:100A10008A1183120313891080300A128A15A023C9
:100A20000A128A1100300A128A15A0230A128A11AA
:100A30008312031389140A30A8000030A9000A1297
:100A40008A1518240A128A11831203138910C030E0
:100A50000A128A15A0230A128A1100300A128A1576
:100A6000A0230A128A118312031389140A30A800E2
:100A70000030A9000A128A1518240A128A1183125A
:100A800003138910E0300A128A15A0230A128A1172
:100A900000300A128A15A0230A128A118312031346
:100AA00089140800A2010314A20D8910E0300A1273
:100AB0008A15A0230A128A1100300A128A15A0236F
:100AC0000A128A118312031389140A128A15B22397
:100AD0000A128A1100300A128A15FA230A128A11A0
:100AE000303083120313A8000730A9000A128A15B8
:100AF0009B240A128A1114300A128A15FA230A1248
:100B00008A11603083120313A8000730A9000A126B
:100B10008A159B240A128A1183120313881A912DB5
:100B2000922DD12D942D942D881E972D982D932D97
:100B30000130A3002308A20714300A128A15FA23F1
:100B40000A128A11C62D0030A8000730A9000A1227
:100B50008A159B240A128A11D12D4830A80007302B
:100B6000A9000A128A159B240A128A11D12D543029
:100B7000A8000730A9000A128A159B240A128A11BC
:100B800083120313A2010314A20DD12D83120313A8
:100B900022088313023A0319A32D013A0319AD2D3C
:100BA000B72D83120313081AD62DD72DFE2DD92D5C
:100BB000D92D081EDC2DDD2DD82DF52D0A128A1514
:100BC00059240A128A11FE2D0A128A11EC220A12E5
:100BD0008A11FE2D0A128A1538240A128A118312EC
:100BE0000313A2010314A20DFE2D22088313023A5F
:100BF0000319DE2D013A0319E42DEA2D8C2D08008E
:100C0000FE00FE1F082E83137E18831700080800BD
:100C10008A0004088200003432342E3453345434B1
:100C200041344E34443441344C344F344E344534E2
:100C3000003431342E3453345034493420344D345C
:100C40004F3444344534003433342E344534523434
:100C500041345334453400347334653463346F3471
:100C60006E34643420346D346534733473346134D9
:100C7000673465342A342A34003431342E34203435
:100C800041346E3461346C346F3467342034493409
:100C90006E34703475347434003432342E3420346D
:100CA0004D3449344334203420342034203420342B
:100CB0002034203420342034003431342E34203495
:100CC0004534723461347334653420342034203434
:100CD000203420342034203400342A342A3472342E
:100CE000653463346F347234643469346E34673419
:100CF00020347434683465340034663469347234B2
:100D00007334743420346D34653473347334613423
:100D1000673465342A342A34003432342E34203493
:100D200047346C346F34623461346C34203445346D
:100D30007234613473346534003431342E342034E9
:100D40004D3465347334733461346734653420341E
:100D5000313420342034203400344D3465346D3443
:100D60006F3472347934203443346C3465346134F4
:100D70007234653464340034733465346C346534EF
:100D800063347434203474346F34203473347434E2
:100D90006F34703400342A342A3470346C34613443
:100DA000793469346E34673420347434683465348B
:100DB000003431342E3420344D346534733473347C
:100DC00061346734653420343134003420342034C5
:100DD0002034203420342034203420342034203473
:100DE00020342034003432342E3420344D346534F1
:100DF00073347334613467346534203432340034EE
:100E000032342E34203450346C346134793420340C
:100E100020342034203400342A342A3470346C34A2
:100E2000613479342A342A34203420342034003494
:100E3000533465346C3465346334743420346D3425
:100E40006F346434653400347234653463346F3421
:100E50007234643469346E3467342A342A3400348A
:100E600053347734693474346334683420346D34E3
:100E70006F346434653400342A342A3466346F3471
:100E8000723477346134723464342A342A3400344E
:100E900033342E3420345234653463346F34723436
:100EA000643420342034003431342E342034463439
:100EB0006F347234773461347234643420340034E3
:100EC00031342E34203446346F3472347734613404
:100ED0007234643400342A342A342A346834613455
:100EE0006C3474342A342A342A34003431342E34A5
:100EF000203450344C34413459342034203420349C
:100F000000342A342A347234653463346F347234D2
:100F100064342A342A34003432342E3420345234A7
:100F2000453443344F34523444340034443465340B
:100F300063346934733469346F346E3400344C3440
:100F40006F3463346134743469346F346E34003414
:100F50002A342A34733474346F34703420340034B7
:100F600045347234613473346534643400344F343E
:100F70007034743469346F346E3400341934063488
:100F80000C34063424340634003400342F082E0484
:100F90002D042C04031DCD2FCE2FCF2FF32F013086
:100FA000B0000030B1000030B2000030B3003008B3
:100FB000AC023108031C310FDE2FDF2FAD023208E7
:100FC000031C320FE42FE52FAE023308031C330F4E
:100FD000EA2FEB2FAF022F082E042D042C04031D43
:080FE000F22FF32FCF2F0800C0
:1017260087129413141383120313141694111411AD
:101736009410141094139416080083120313A8002F
:10174600280883139300A72B83160313141CAC2BB2
:10175600AD2BA72B831203131308B12B08000130FE
:101766000A128A15E0230A128A158312031300301F
:10177600AF000030AE000030AD003230AC000A12CF
:101786008A11C6270A128A150800AB0008172B080B
:10179600831386000030AF000030AE000030AD008D
:1017A6003230AC000A128A11C6270A128A150A12AA
:1017B6008A157A240A128A15080083120313A900CF
:1017C60008132908831386000030AF000030AE00EE
:1017D6000030AD003230AC000A128A11C6270A1258
:1017E6008A150A128A157A240A128A1508008312A3
:1017F6000313A800103028020318022C032C0C2C0B
:1018060028088313803E0A128A15E0230A128A15D5
:10181600172C28088313EC3EA8002808C03E0A129D
:101826008A15E0230A128A15080029082804031DD0
:101836001D2C1E2C1F2C372C0310003003180130D2
:101846008100252CC3300102031C2A2C2B2C252CAD
:101856000130A8020030031CA903A90229082804A4
:10186600031D362C372C1F2C0800071014300A12C3
:101876008A15FA230A128A153C3083120313A8002C
:101886000730A9000A128A159B240A128A152C30E1
:1018960083120313A8000130A9000A128A1518241E
:1018A6000A128A158312031307140800091114304B
:1018B6000A128A15FA230A128A150C3083120313A8
:1018C600A8000730A9000A128A159B240A128A1555
:1018D600643083120313A8000030A9000A128A1587
:1018E60018240A128A158312031309150800831295
:1018F600031388170030AF000030AE000030AD0093
:101906003230AC000A128A11C6270A128A158312CF
:10191600031388130030AF000030AE000030AD0076
:101926003230AC000A128A11C6270A128A1508003C
:10193600B22C2808840029080A128A1100260A12E5
:101946008A150A128A15C8230A128A1501308312CB
:101956000313A8070318A90AAA00AA1BA9032908A2
:1019660028040319B72CB82CC52C2808840029088C
:101976000A128A1100260A128A150038031DC42C81
:10198600C52C9C2C08008910E0300A128A15A02369
:101996000A128A1500300A128A15A0230A128A151D
:1019A6008312031389140A30A8000030A9000A1212
:1019B6008A1518240A128A15831203138910803097
:1019C6000A128A15A0230A128A1500300A128A15ED
:1019D600A0230A128A158312031389140A30A80059
:1019E6000030A9000A128A1518240A128A158312D1
:1019F600031388150A128A1162220A128A15080030
:101A0600891080300A128A15A0230A128A1500301E
:101A16000A128A15A0230A128A158312031389143F
:101A26000A30A8000030A9000A128A1518240A12E2
:101A36008A15831203138910C2300A128A15A0234D
:101A46000A128A1500300A128A15A0230A128A156C
:101A56008312031389146430A8000030A9000A1207
:101A66008A1518240A128A150A128A15B2230A122E
:101A76008A1514300A128A15FA230A128A15AD300D
:101A860083120313A8000630A9000A128A159B24A4
:101A96000A128A154D2D0800891080300A128A15FF
:101AA600A0230A128A1500300A128A15A0230A12E8
:101AB6008A158312031389140A30A8000030A9007E
:101AC6000A128A1518240A128A158312031389101A
:101AD60042300A128A15A0230A128A1500300A1209
:101AE6008A15A0230A128A158312031389146430F7
:101AF600A8000030A9000A128A1518240A128A15AD
:101B06000A128A15B2230A128A1514300A128A1585
:101B1600FA230A128A15B03083120313A80007307D
:101B2600A9000A128A159B240A128A15992D080003
:101B36009D2D9D2D081AA02DA12D9C2D081AA42D92
:101B4600A52DD32DA72DA72D081EAA2DAB2DA62D6D
:101B560005100A128A15B2230A128A1500300A12D3
:101B66008A15FA230A128A15813083120313A800F4
:101B76000730A9000A128A159B240A128A15143006
:101B86000A128A15FA230A128A15BC308312031325
:101B9600A8000630A9000A128A159B240A128A1583
:101BA600D52DD52D83120313881ADA2DDB2DD42DCE
:101BB600881ADE2DDF2D0E2EE12DE12D881EE42D57
:101BC600E52DE02D05140A128A15B2230A128A158C
:101BD60000300A128A15FA230A128A15A8308312CF
:101BE6000313A8000730A9000A128A159B240A12BB
:101BF6008A1514300A128A15FA230A128A15243015
:101C060083120313A8000730A9000A128A159B2421
:101C16000A128A150D2E9B2D0800891001300A1212
:101C26008A15A0230A128A1500300A128A15A023E3
:101C36000A128A1508300A128A15A0230A128A1572
:101C460000300A128A15A0230A128A156E300A126B
:101C56008A15A0230A128A1580300A128A15A02333
:101C66000A128A1500300A128A15A0230A128A154A
:101C76008312031389140A128A15B2230A128A15CB
:101C860000300A128A15FA230A128A15CB308312FB
:101C96000313A8000630A9000A128A159B240A120B
:101CA6008A1514300A128A15FA230A128A157D300B
:101CB60083120313A8000630A9000A128A159B2472
:101CC6000A128A15F83083120313A8001130A900EE
:101CD6000A128A1518240A128A150A128A15B223BC
:101CE6000A128A1500300A128A15FA230A128A1570
:101CF6006B3083120313A8000730A9000A128A1555
:101D06009B240A128A150800891001300A128A15C6
:101D1600A0230A128A1500300A128A15A0230A1275
:101D26008A15EE300A128A15A0230A128A15803007
:101D36000A128A15A0230A128A15BB300A128A15BE
:101D4600A0230A128A1540300A128A15A0230A1205
:101D56008A1500300A128A15A0230A128A158312E0
:101D6600031389140A128A15B2230A128A1500303F
:101D76000A128A15FA230A128A15CB308312031324
:101D8600A8000630A9000A128A159B240A128A1591
:101D960014300A128A15FA230A128A152C30831275
:101DA6000313A8000630A9000A128A159B240A12FA
:101DB6008A15F83083120313A8001130A9000A12FD
:101DC6008A1518240A128A150A128A15B2230A12CB
:101DD6008A1500300A128A15FA230A128A156B3000
:101DE60083120313A8000730A9000A128A159B2440
:101DF6000A128A150800891081300A128A15A02352
:101E06000A128A1500300A128A15A0230A128A15A8
:101E1600EE300A128A15A0230A128A1580300A1299
:101E26008A15A0230A128A15BB300A128A15A02326
:101E36000A128A1540300A128A15A0230A128A1538
:101E460000300A128A15A0230A128A158312031378
:101E560089140A128A15B2230A128A1500300A1248
:101E66008A15FA230A128A156D3083120313A80005
:101E76000630A9000A128A159B240A128A15143004
:101E86000A128A15FA230A128A152C3083120313B2
:101E9600A8000630A9000A128A159B240A128A1580
:101EA600F83083120313A8001130A9000A128A150C
:101EB60018240A128A150A128A15B2230A128A15DA
:101EC60000300A128A15FA230A128A156B30831219
:101ED6000313A8000730A9000A128A159B240A12C8
:101EE6008A158312031388150800A4010314A40D90
:101EF6000A128A15B2230A128A1500300A128A15A6
:101F0600FA230A128A159F3083120313A80007309A
:101F1600A9000A128A159B240A128A1514300A127D
:101F26008A15FA230A128A159D3083120313A80014
:101F36000630A9000A128A159B240A128A158312F2
:101F46000313881AA72FA82FDA2FAA2FAA2F881EC5
:101F5600AD2FAE2FA92F0130A5002508A4071430F8
:101F66000A128A15FA230A128A15D22FF330A8000C
:101F76000630A9000A128A159B240A128A15DA2F3E
:101F86009D30A8000630A9000A128A159B240A1261
:101F96008A1583120313A4010314A40DDA2F8312E6
:101FA600031324088313023A0319B92FC32F83128C
:101FB6000313081ADF2FE02FFE2FE22FE22F081E51
:101FC600E52FE62FE12FF82F0A128A1587260A1227
:101FD6008A15FE2F0A128A1510260A128A158312EE
:101FE6000313A4010314A40DFE2F24088313023A3D
:0A1FF6000319E72FED2FA22F0800BA
:02400E003A3F37
:00000001FF
