:060000000A128A15E12D31
:1000080083160313871294131413831203131416FD
:100018009411141194101410941394160800831258
:100028000313891001300A128A15BB250A128A1196
:1000380000300A128A15BB250A128A11EE300A12FC
:100048008A15BB250A128A1180300A128A15BB2527
:100058000A128A11BB300A128A15BB250A128A11A4
:1000680040300A128A15BB250A128A1100300A127A
:100078008A15BB250A128A118312031389140A12DE
:100088008A15CD250A128A1100300A128A152826E7
:100098000A128A11D130F9009E30FA000A128A1524
:1000A800F6260A128A1114300A128A1528260A120C
:1000B8008A113230F9009E30FA000A128A15F626A3
:1000C8000A128A11F830F0001130F1000A128A156C
:1000D800A4260A128A110A128A15CD250A128A1133
:1000E80000300A128A1528260A128A117130F9007E
:1000F8009F30FA000A128A15F6260A128A11080099
:1001080083120313891001300A128A15BB250A12BB
:100118008A1100300A128A15BB250A128A11083082
:100128000A128A15BB250A128A1100300A128A158A
:10013800BB250A128A116E300A128A15BB250A12CB
:100148008A1180300A128A15BB250A128A110030DA
:100158000A128A15BB250A128A11831203138914FD
:100168000A128A15CD250A128A1100300A128A1538
:1001780028260A128A11D130F9009E30FA000A1294
:100188008A15F6260A128A1114300A128A152826A8
:100198000A128A117330F9009E30FA000A128A1581
:1001A800F6260A128A11F830F0001130F1000A120E
:1001B8008A15A4260A128A110A128A15CD250A124E
:1001C8008A1100300A128A1528260A128A117130FB
:1001D800F9009F30FA000A128A15F6260A128A11C7
:1001E8000800F62883120313081AFB28FC28F628AF
:1001F800081AFF2800292C2902290229081E052986
:100208000629022905100A128A15CD250A128A1113
:1002180000300A128A1528260A128A117C30F90041
:100228009F30FA000A128A15F6260A128A1114302B
:100238000A128A1528260A128A11C230F9009E303D
:10024800FA000A128A15F6260A128A112C292C2974
:1002580083120313881A312932292C29881A35293F
:100268003629F52838293829881E3B293C29382978
:1002780005140A128A15CD250A128A1100300A12AD
:100288008A1528260A128A11AE30F9009F30FA0022
:100298000A128A15F6260A128A1114300A128A15C9
:1002A80028260A128A114230F9009F30FA000A12F1
:1002B8008A15F6260A128A1161296129F528F52876
:1002C800F528080083120313891081300A128A1551
:1002D800BB250A128A1100300A128A15BB250A1298
:1002E8008A11EE300A128A15BB250A128A1180304B
:1002F8000A128A15BB250A128A11BB300A128A15FE
:10030800BB250A128A1140300A128A15BB250A1227
:100318008A1100300A128A15BB250A128A11831223
:10032800031389140A128A15CD250A128A1100307E
:100338000A128A1528260A128A118330F9009E307B
:10034800FA000A128A15F6260A128A1114300A12BD
:100358008A1528260A128A113230F9009E30FA00CE
:100368000A128A15F6260A128A11F830F00011309E
:10037800F1000A128A15A4260A128A110A128A158D
:10038800CD250A128A1100300A128A1528260A1267
:100398008A117130F9009F30FA000A128A15F62680
:1003A8000A128A1183120313881508008312031393
:1003B800891081300A128A15BB250A128A11003069
:1003C8000A128A15BB250A128A1108300A128A15E0
:1003D800BB250A128A1100300A128A15BB250A1297
:1003E8008A116E300A128A15BB250A128A118030CA
:1003F8000A128A15BB250A128A1100300A128A15B8
:10040800BB250A128A118312031389140A128A154A
:10041800CD250A128A1100300A128A1528260A12D6
:100428008A118330F9009E30FA000A128A15F626DE
:100438000A128A1114300A128A1528260A128A11F9
:100448007330F9009E30FA000A128A15F6260A124D
:100458008A11F830F0001130F1000A128A15A4262A
:100468000A128A110A128A15CD250A128A11003039
:100478000A128A1528260A128A117130F9009F304B
:10048800FA000A128A15F6260A128A118312031331
:1004980088150800FC010314FC0D0A128A15CD25E5
:1004A8000A128A1100300A128A1528260A128A119D
:1004B8009C30F9009F30FA000A128A15F6260A12B3
:1004C8008A1114300A128A1528260A128A11533002
:1004D800F9009E30FA000A128A15F6260A128A11C5
:1004E800752A83120313881A7A2A7B2AA92A7D2A55
:1004F8007D2A881E802A812A7D2A822A0130FB00D3
:100508007B08FC0714300A128A1528260A128A1159
:10051800A42A9330F9009E30FA000A128A15F626AA
:100528000A128A11A92A5330F9009E30FA000A12D9
:100538008A15F6260A128A11FC010314FC0DA92A51
:100548007C08023A03198D2A972A83120313081A82
:10055800AE2AAF2A752AB12AB12A081EB42AB52AAA
:10056800B12AC62AC62A0A128A1566270A128A11C9
:10057800752A0A128A15B3270A128A11FC01031474
:10058800FC0D752A7C08023A0319B72ABD2A752A78
:10059800752A752A0800FC010314FC0D0A128A1535
:1005A800CD250A128A1100300A128A1528260A1245
:1005B8008A11A530F9009F30FA000A128A15F6262A
:1005C8000A128A1114300A128A1528260A128A1168
:1005D8006330F9009E30FA000A128A15F6260A12CC
:1005E8008A11F62A83120313881AFB2AFC2A2A2B5B
:1005F800FE2AFE2A881E012B022BFE2A032B01301D
:10060800FB007B08FC0714300A128A1528260A12F8
:100618008A11252BF930F9009E30FA000A128A1542
:10062800F6260A128A112A2B6330F9009E30FA0046
:100638000A128A15F6260A128A11FC010314FC0D07
:100648002A2B7C08023A03190E2B182B831203134A
:10065800081A2F2B302BF62A322B322B081E352B5B
:10066800362B322B472B472B0A128A1113200A12DA
:100678008A11F62A0A128A1184200A128A11FC01A8
:100688000314FC0DF62A7C08023A0319382B3E2B7A
:10069800F62AF62AF62A0800FC010314FC0D0A12B1
:1006A8008A15CD250A128A1100300A128A152826C1
:1006B8000A128A11A530F9009F30FA000A128A1529
:1006C800F6260A128A1114300A128A1528260A12E6
:1006D8008A11EC30F9009E30FA000A128A15F626C3
:1006E8000A128A11772B83120313881A7C2B7D2B0D
:1006F800AB2B7F2B7F2B881E822B832B7F2B842B6E
:100708000130FB007B08FC0714300A128A152826E2
:100718000A128A11A62BF930F9009E30FA000A1243
:100728008A15F6260A128A11AB2BEC30F9009E3096
:10073800FA000A128A15F6260A128A11FC01031415
:10074800FC0DAB2B7C08023A03198F2B992B8312D3
:100758000313081AB02BB12B772BB32BB32B081E1E
:10076800B62BB72BB32BC82BC82B0A128A116621BC
:100778000A128A11772B0A128A11DA210A128A11AF
:10078800FC010314FC0D772B7C08023A0319B92BE2
:10079800BF2B772B772B772B0800FC010314FC0D5C
:1007A8000A128A15CD250A128A1100300A128A15F2
:1007B80028260A128A11BD30F9009F30FA000A1261
:1007C8008A15F6260A128A1114300A128A15282662
:1007D8000A128A11A330F9009E30FA000A128A150B
:1007E800F6260A128A11F82B83120313881AFD2B96
:1007F800FE2B2C2C002C002C881E032C042C002CE7
:10080800052C0130FB007B08FC0714300A128A15FE
:1008180028260A128A11272C4330F9009E30FA0044
:100828000A128A15F6260A128A112C2CA330F9000E
:100838009E30FA000A128A15F6260A128A11FC015D
:100848000314FC0D2C2C7C08023A0319102C1A2CCA
:1008580083120313081A312C322CF82B342C342C25
:10086800081E372C382C342C4F2C4F2C8312031392
:1008780088150A128A11F5200A128A11F82B831298
:10088800031388110A128A11F5200A128A11FC0131
:100898000314FC0DF82B7C08023A03193A2C432C5C
:1008A800F82BF82BF82B080083120313A801031464
:1008B800A80D0A128A15CD250A128A1100300A12CB
:1008C8008A1528260A128A11BD30F9009F30FA00CD
:1008D8000A128A15F6260A128A1114300A128A1583
:1008E80028260A128A11A330F9009E30FA000A124B
:1008F8008A15F6260A128A11812C83120313881A84
:10090800862C872CB92C892C892C881E8C2C8D2C14
:10091800892C8E2C0130FD007D08A80714300A129E
:100928008A1528260A128A11B22C4330F9009E3003
:10093800FA000A128A15F6260A128A11B92CA3306F
:10094800F9009E30FA000A128A15F6260A128A1150
:1009580083120313A8010314A80DB92C83120313DF
:100968002808023A0319992CA32C83120313081A96
:10097800BE2CBF2C812CC12CC12C081EC42CC52C0C
:10098800C12CD82CD82C0A128A1527270A128A11AA
:10099800812C0A128A116B250A128A1183120313F9
:1009A800A8010314A80D812C2808023A0319C72CA2
:1009B800CD2C812C812C812C0800831603138501F2
:1009C800860187013030880089018312031385016D
:1009D800880189010630831603139F0083120313CD
:1009E800881505140714091501300A128A15F62509
:1009F8000A128A1102300A128A15F6250A128A1179
:100A080006300A128A15F6250A128A110C300A12C3
:100A18008A15F6250A128A1138300A128A15F6251F
:100A28000A128A1183160313811281110115811488
:100A380001140A128A1104200A128A11831203135C
:100A4800891080300A128A15BB250A128A110030D3
:100A58000A128A15BB250A128A11831203138914F4
:100A68000A30F0000030F1000A128A15A4260A1292
:100A78008A11831203138910C0300A128A15BB2504
:100A88000A128A1100300A128A15BB250A128A1125
:100A98008312031389140A30F0000030F1000A129F
:100AA8008A15A4260A128A11831203138910E030CA
:100AB8000A128A15BB250A128A1100300A128A15F1
:100AC800BB250A128A1183120313891408008312A2
:100AD80003138910E0300A128A15BB250A128A11FD
:100AE80000300A128A15BB250A128A1183120313D1
:100AF80089140A30F0000030F1000A128A15A42681
:100B08000A128A1183120313891020300A128A15D7
:100B1800BB250A128A1100300A128A15BB250A124F
:100B28008A118312031389140A30F0000030F1008F
:100B38000A128A15A4260A128A118312031389102D
:100B480080300A128A15BB250A128A1100300A124F
:100B58008A15BB250A128A118312031389140A30D5
:100B6800F0000030F1000A128A15A4260A128A1130
:100B7800831203138811891020300A128A15BB25A5
:100B88000A128A1100300A128A15BB250A128A1124
:100B98008312031389140A30F0000030F1000A129E
:100BA8008A15A4260A128A11831203138910A23007
:100BB8000A128A15BB250A128A1100300A128A15F0
:100BC800BB250A128A1120300A128A15BB250A127F
:100BD8008A118312031389140A30F0000030F100DF
:100BE8000A128A15A4260A128A110A128A11502397
:100BF8000A128A11080083120313AA010314AA0D0A
:100C0800891080300A128A15BB250A128A11003011
:100C18000A128A15BB250A128A1183120313891432
:100C28000A30F0000030F1000A128A15A4260A12D0
:100C38008A118312031388150A128A15CD250A1200
:100C48008A1100300A128A1528260A128A114E3093
:100C5800F9009F30FA000A128A15F6260A128A113C
:100C680014300A128A1528260A128A116630F900E9
:100C78009F30FA000A128A15F6260A128A11442EA3
:100C880083120313881A492E4A2E7C2E4C2E4C2E82
:100C9800881E4F2E502E4C2E512E0130A9002908A7
:100CA800AA0714300A128A1528260A128A11752EE4
:100CB8009230F9009F30FA000A128A15F6260A12B5
:100CC8008A117C2E6630F9009F30FA000A128A15C4
:100CD800F6260A128A1183120313AA010314AA0D15
:100CE8007C2E831203132A08023A03195C2E662EFF
:100CF80083120313081A812E822E442E842E842EEA
:100D0800081E872E882E842E9B2E9B2E0A128A114F
:100D180058240A128A11442E0A128A11CF220A1262
:100D28008A1183120313AA010314AA0D442E2A0858
:100D3800023A03198A2E902E442E442E442E08007F
:100D4800031000300318013083120313AC000A1299
:100D58008A11E1240A128A110A128A15CD250A126B
:100D68008A1100300A128A1528260A128A115A3066
:100D7800F9009F30FA000A128A15F6260A128A111B
:100D880014300A128A1528260A128A1183120313AC
:100D98002C08AB002B07203E840083130008F900C1
:100DA800840A0008FA000A128A15F6260A128A111D
:100DB800DD2E83120313881AE22EE32E1C2FE52E54
:100DC800E52E881EE82EE92EE52EEA2E0130AB002E
:100DD8002B08AC0703302C02031CF32EF42EFA2E3A
:100DE8000310003003180130AC00FA2E14300A1238
:100DF8008A1528260A128A11831203132C08AB00BD
:100E08002B07203E840083130008F900840A000899
:100E1800FA000A128A15F6260A128A11DF30F9003A
:100E28009E30FA000A128A15F6260A128A111C2F19
:100E380083120313081A212F222FDD2E242F242F8B
:100E4800081E272F282F242F432F432F0A128A11D9
:100E580051270A128A11DD2E0A128A114E220A120D
:100E68008A11DD2E0A128A11FF250A128A1103102F
:100E780000300318013083120313AC00DD2E2C0858
:100E8800013A03192A2F033A0319302F362FDD2E82
:100E9800DD2EDD2E0A128A11002883120313A80101
:100EA8000314A80D8910E0300A128A15BB250A120E
:100EB8008A1100300A128A15BB250A128A11831278
:100EC800031389140A128A15CD250A128A110030D3
:100ED8000A128A1528260A128A114E30F9009F3004
:100EE800FA000A128A15F6260A128A1114300A1212
:100EF8008A1528260A128A118730F9009F30FA00CD
:100F08000A128A15F6260A128A118A2F83120313E7
:100F1800881A8F2F902FCF2F922F922F881E952FC0
:100F2800962F922F972F0130FD007D08A8071430C7
:100F38000A128A1528260A128A11C52F0630F900C6
:100F48009F30FA000A128A15F6260A128A11CF2F44
:100F58001E30F9009F30FA000A128A15F6260A1286
:100F68008A11CF2F2A30F9009F30FA000A128A1509
:100F7800F6260A128A1183120313A8010314A80D76
:100F8800CF2F831203132808023A0319A22F013A1C
:100F98000319AC2FB62F83120313081AD42FD52F99
:100FA8008A2FD72FD72F081EDA2FDB2FD72FF42F12
:100FB800F42F0A128A1545260A128A118A2F0A1254
:100FC8008A11D1230A128A118A2F0A128A156426D5
:100FD8000A128A1183120313A8010314A80D8A2F79
:100FE8002808023A0319DD2F013A0319E32FE92FE4
:080FF8008A2F8A2F8A2F0800BE
:101B44001F349E3412349E342A349E3400340034BC
:101B54007E088A007F088200AA250A128A1580005E
:101B6400840A04087D0603190034FF0A0319FE0AD7
:101B7400AE2DF0007008831203139300C12D831659
:101B84000313141CC62DC72DC12DC82D8312031396
:101B94001308CC2D080001300A128A15F6250A1202
:101BA4008A150030F3000030F2000030F1003230CA
:101BB400F0000A128A15C6260A128A150800AD0119
:101BC400AE01AF0183132830FD000D30FE00A230BA
:101BD400FF00203084000A128A15AE250A128A15E5
:101BE40083010A128A11A42EF80083120313081326
:101BF400780886000030F3000030F2000030F10075
:101C04003230F0000A128A15C6260A128A150A1200
:101C14008A1583260A128A150800F8008312031312
:101C24000817780886000030F3000030F200003016
:101C3400F1003230F0000A128A15C6260A128A15FB
:101C44000A128A1583260A128A150800FA0010302F
:101C54007A0203182E2E2F2E372E7A08803E0A126F
:101C64008A15F6250A128A15442E7A08EC3EF900E4
:101C74007908FA007A08C03E0A128A15F6250A1273
:101C84008A15442E080083120313091114300A1212
:101C94008A1528260A128A151230F9009F30FA0094
:101CA4000A128A15F6260A128A156430F0000030EA
:101CB400F1000A128A15A4260A128A158312031344
:101CC4000915080083120313071014300A128A1529
:101CD40028260A128A153630F9009F30FA000A12B3
:101CE4008A15F6260A128A152C30F0000130F1000C
:101CF4000A128A15A4260A128A15831203130714DA
:101D040008008312031388170030F3000030F20038
:101D14000030F1003230F0000A128A15C6260A1289
:101D24008A158312031388130030F3000030F20085
:101D34000030F1003230F0000A128A15C6260A1269
:101D44008A15080071087004031DA92EAA2EAC2E52
:101D5400C52EC52E831203138101B12EB12EC330BB
:101D64000102031CB62EB72EB12EB82E0130F0029C
:101D74000030031CF103F10271087004031DC32E2B
:101D8400C42EAC2EC52E08007308720471047004AE
:101D9400031DCD2ECE2ED02EF52EF52E0130F400BF
:101DA4000030F5000030F6000030F7007408F0024F
:101DB4007508031C750FDF2EE02EF1027608031C54
:101DC400760FE52EE62EF2027708031C770FEB2E32
:101DD400EC2EF3027308720471047004031DF32ED5
:101DE400F42ED02EF52E08000E2F7A08831203133A
:101DF400FF00790884000A168A1500260A128A153B
:101E04000A128A150F260A128A150130F9070318D7
:101E1400FA0A0030FA070E2F7A0879040319132FEF
:101E2400142F262F7A0883120313FF0079088400E5
:101E34000A168A1500260A128A150038031D232F54
:101E4400242FF72E262F262F080083120313891020
:101E5400E0300A128A15BB250A128A1500300A12CC
:101E64008A15BB250A128A158312031389140A30B2
:101E7400F0000030F1000A128A15A4260A128A150D
:101E840083120313891080300A128A15BB250A12A3
:101E94008A1500300A128A15BB250A128A15831284
:101EA400031389140A30F0000030F1000A128A1575
:101EB400A4260A128A158312031388150A128A119A
:101EC40050230A128A1508008312031389108030E4
:101ED4000A128A15BB250A128A1500300A128A15BD
:101EE400BB250A128A158312031389140A30F000E1
:101EF4000030F1000A128A15A4260A128A158312E8
:101F040003138910C2300A128A15BB250A128A15D6
:101F140000300A128A15BB250A128A15831203138C
:101F240089146430F0000030F1000A128A15A426E6
:101F34000A128A150A128A15CD250A128A15143036
:101F44000A128A1528260A128A15B330F9009E301F
:101F5400FA000A128A15F6260A128A15B12FB12F31
:101F6400080083120313891080300A128A15BB25D6
:101F74000A128A1500300A128A15BB250A128A151C
:101F84008312031389140A30F0000030F1000A129E
:101F94008A15A4260A128A15831203138910423063
:101FA4000A128A15BB250A128A1500300A128A15EC
:101FB400BB250A128A158312031389146430F000B6
:101FC4000030F1000A128A15A4260A128A150A1290
:101FD4008A15CD250A128A1514300A128A15282664
:101FE4000A128A15B630F9009F30FA000A128A15CF
:0C1FF400F6260A128A15FE2FFE2F0800A8
:103C0000FF1B0A2E83137F1883170008840A0319E9
:103C1000FF0A08007F087F398A000408840A031914
:103C2000FF0A820032342E345334543441344E343B
:103C3000443441344C344F344E3445340034313400
:103C40002E3453345034493420344D344F344434BA
:103C50004534003433342E344534523441345334F3
:103C6000453400347334653463346F346E346434F3
:103C700020346D346534733473346134673465349F
:103C80002A342A34003432342E3420344D3449342A
:103C90004334203420342034203420342034203461
:103CA00020342034003431342E34203445347234FE
:103CB000613473346534203420342034203420348B
:103CC00020342034003431342E3420344D346534E3
:103CD00073347334613467346534203431342034C0
:103CE00020342034003466346934723473347434CC
:103CF00020346D346534733473346134673465341F
:103D00002A342A3400342A342A3472346534633431
:103D10006F347234643469346E34673420347434EC
:103D200068346534003432342E34203447346C34F3
:103D30006F34623461346C3420344534723461340D
:103D400073346534003431342E34203441346E34CD
:103D500061346C346F346734203449346E347034D9
:103D60007534743400344D3465346D346F347234CA
:103D70007934203443346C346534613472346534BE
:103D800064340034733465346C34653463347434AF
:103D9000203474346F342034733474346F3470349A
:103DA00000342A342A3470346C3461347934693400
:103DB0006E3467342034743468346534003420340D
:103DC0002034203420342034203420342034203453
:103DD000203420342034003431342E3420344D3417
:103DE000653473347334613467346534203431346A
:103DF000003432342E3420344D346534733473340B
:103E000061346734653420343234003432342E3433
:103E1000203450346C3461347934203420342034EC
:103E2000203400342A342A3470346C3461347934C8
:103E30002A342A34203420342034003433342E34CD
:103E400020345234653463346F3472346434203433
:103E50002034003431342E34203446346F347234FC
:103E60007734613472346434203400342A342A3490
:103E700066346F34723477346134723464342A3483
:103E80002A3400347234653463346F3472346434E9
:103E900069346E3467342A342A3400345334773426
:103EA000693474346334683420346D346F3464346A
:103EB00065340034533465346C346534633474349D
:103EC00020346D346F3464346534003431342E342E
:103ED000203450344C34413459342034203420348C
:103EE00000342A342A342A34683461346C3474340B
:103EF0002A342A342A3400342A342A347234653479
:103F000063346F34723464342A342A3400343134E4
:103F10002E34203446346F34723477346134723442
:103F20006434003432342E34203452344534433433
:103F30004F34523444340034443465346334693487
:103F4000733469346F346E3400344C346F346334FA
:103F50006134743469346F346E3400342A342A3452
:103F6000733474346F347034203400344534723414
:103F7000613473346534643400344F3470347434D1
:083F800069346F346E34003423
:02400E003A3F37
:00000001FF
