:060000000A128A15FA2D18
:10000C00F800831203130817780886000030F300F9
:10001C000030F2000030F1003230F0000A128A1584
:10002C00C6260A128A110A128A1583260A128A1106
:10003C00080083120313891001300A128A15C12596
:10004C000A128A1100300A128A15C1250A128A1165
:10005C00EE300A128A15C1250A128A1180300A1252
:10006C008A15C1250A128A11BB300A128A15C125BC
:10007C000A128A1140300A128A15C1250A128A11F5
:10008C0000300A128A15C1250A128A118312031331
:10009C0089140A128A15E6250A128A1100300A12EE
:1000AC008A1528260A128A11D130F9009E30FA00DE
:1000BC000A128A15F6260A128A1114300A128A15A7
:1000CC0028260A128A113230F9009E30FA000A12E0
:1000DC008A15F6260A128A11F830F0001130F10058
:1000EC000A128A15A4260A128A110A128A15E62502
:1000FC000A128A1100300A128A1528260A128A114D
:10010C007130F9009F30FA000A128A15F6260A128D
:10011C008A11080083120313891001300A128A1500
:10012C00C1250A128A1100300A128A15C1250A1239
:10013C008A1108300A128A15C1250A128A11003058
:10014C000A128A15C1250A128A116E300A128A15F2
:10015C00C1250A128A1180300A128A15C1250A1289
:10016C008A1100300A128A15C1250A128A118312CB
:10017C00031389140A128A15E6250A128A11003013
:10018C000A128A1528260A128A11D130F9009E30DB
:10019C00FA000A128A15F6260A128A1114300A126B
:1001AC008A1528260A128A117330F9009E30FA003B
:1001BC000A128A15F6260A128A11F830F00011304C
:1001CC00F1000A128A15A4260A128A110A128A153B
:1001DC00E6250A128A1100300A128A1528260A12FC
:1001EC008A117130F9009F30FA000A128A15F6262E
:1001FC000A128A110800022983120313081A07290C
:10020C0008290229081A0B290C2938290E290E292C
:10021C00081E112912290E2905100A128A15E62525
:10022C000A128A1100300A128A1528260A128A111B
:10023C007C30F9009F30FA000A128A15F6260A1251
:10024C008A1114300A128A1528260A128A11C23011
:10025C00F9009E30FA000A128A15F6260A128A1143
:10026C003829382983120313881A3D293E29382945
:10027C00881A41294229012944294429881E4729E1
:10028C004829442905140A128A15E6250A128A11EE
:10029C0000300A128A1528260A128A11AE30F9008B
:1002AC009F30FA000A128A15F6260A128A111430A7
:1002BC000A128A1528260A128A114230F9009F3038
:1002CC00FA000A128A15F6260A128A116D296D296E
:1002DC000129012901290800831203138910813097
:1002EC000A128A15C1250A128A1100300A128A15BF
:1002FC00C1250A128A11EE300A128A15C1250A127A
:10030C008A1180300A128A15C1250A128A11BB3053
:10031C000A128A15C1250A128A1140300A128A154E
:10032C00C1250A128A1100300A128A15C1250A1237
:10033C008A118312031389140A128A15E6250A12EC
:10034C008A1100300A128A1528260A128A11833063
:10035C00F9009E30FA000A128A15F6260A128A1142
:10036C0014300A128A1528260A128A113230F90022
:10037C009E30FA000A128A15F6260A128A11F830F3
:10038C00F0001130F1000A128A15A4260A128A1103
:10039C000A128A15E6250A128A1100300A128A15E9
:1003AC0028260A128A117130F9009F30FA000A12BD
:1003BC008A15F6260A128A1183120313881508006F
:1003CC0083120313891081300A128A15C1250A126F
:1003DC008A1100300A128A15C1250A128A110830B6
:1003EC000A128A15C1250A128A1100300A128A15BE
:1003FC00C1250A128A116E300A128A15C1250A12F9
:10040C008A1180300A128A15C1250A128A1100300D
:10041C000A128A15C1250A128A1183120313891430
:10042C000A128A15E6250A128A1100300A128A1558
:10043C0028260A128A118330F9009E30FA000A121B
:10044C008A15F6260A128A1114300A128A152826E1
:10045C000A128A117330F9009E30FA000A128A15BA
:10046C00F6260A128A11F830F0001130F1000A1247
:10047C008A15A4260A128A110A128A15E6250A126E
:10048C008A1100300A128A1528260A128A11713034
:10049C00F9009F30FA000A128A15F6260A128A1100
:1004AC008312031388150800FC010314FC0D0A12B7
:1004BC008A15E6250A128A1100300A128A15282696
:1004CC000A128A119C30F9009F30FA000A128A1520
:1004DC00F6260A128A1114300A128A1528260A12D4
:1004EC008A115330F9009E30FA000A128A15F6264A
:1004FC000A128A11812A83120313881A862A872AE0
:10050C00B52A892A892A881E8C2A8D2A892A8E2A1C
:10051C000130FB007B08FC0714300A128A152826D0
:10052C000A128A11B02A9330F9009E30FA000A128E
:10053C008A15F6260A128A11B52A5330F9009E3014
:10054C00FA000A128A15F6260A128A11FC01031403
:10055C00FC0DB52A7C08023A0319992AA32A8312A6
:10056C000313081ABA2ABB2A812ABD2ABD2A081EDF
:10057C00C02AC12ABD2AD22AD22A0A128A15662773
:10058C000A128A11812A0A128A15B3270A128A11B1
:10059C00FC010314FC0D812A7C08023A0319C32ABE
:1005AC00C92A812A812A812A0800FC010314FC0D26
:1005BC000A128A15E6250A128A1100300A128A15C7
:1005CC0028260A128A11A530F9009F30FA000A1267
:1005DC008A15F6260A128A1114300A128A15282650
:1005EC000A128A116330F9009E30FA000A128A1539
:1005FC00F6260A128A11022B83120313881A072B70
:10060C00082B362B0A2B0A2B881E0D2B0E2B0A2B94
:10061C000F2B0130FB007B08FC0714300A128A15E3
:10062C0028260A128A11312BF930F9009E30FA0073
:10063C000A128A15F6260A128A11362B6330F90033
:10064C009E30FA000A128A15F6260A128A11FC014B
:10065C000314FC0D362B7C08023A03191A2B242B9D
:10066C0083120313081A3B2B3C2B022B3E2B3E2BE5
:10067C00081E412B422B3E2B532B532B0A128A1153
:10068C001F200A128A11022B0A128A1190200A12B8
:10069C008A11FC010314FC0D022B7C08023A03198D
:1006AC00442B4A2B022B022B022B0800FC010314B7
:1006BC00FC0D0A128A15E6250A128A1100300A125C
:1006CC008A1528260A128A11A530F9009F30FA00E3
:1006DC000A128A15F6260A128A1114300A128A1581
:1006EC0028260A128A11EC30F9009E30FA000A1200
:1006FC008A15F6260A128A11832B83120313881A81
:10070C00882B892BB72B8B2B8B2B881E8E2B8F2B0F
:10071C008B2B902B0130FB007B08FC0714300A124A
:10072C008A1528260A128A11B22BF930F9009E304C
:10073C00FA000A128A15F6260A128A11B72BEC3027
:10074C00F9009E30FA000A128A15F6260A128A114E
:10075C00FC010314FC0DB72B7C08023A03199B2BEC
:10076C00A52B83120313081ABC2BBD2B832BBF2B79
:10077C00BF2B081EC22BC32BBF2BD42BD42B0A127E
:10078C008A1172210A128A11832B0A128A11E6210C
:10079C000A128A11FC010314FC0D832B7C08023A0B
:1007AC000319C52BCB2B832B832B832B0800FC012C
:1007BC000314FC0D0A128A15E6250A128A11003060
:1007CC000A128A1528260A128A11BD30F9009F30A8
:1007DC00FA000A128A15F6260A128A1114300A1225
:1007EC008A1528260A128A11A330F9009E30FA00C5
:1007FC000A128A15F6260A128A11042C8312031384
:10080C00881A092C0A2C382C0C2C0C2C881E0F2C1A
:10081C00102C0C2C112C0130FB007B08FC07143025
:10082C000A128A1528260A128A11332C4330F90031
:10083C009E30FA000A128A15F6260A128A11382CF2
:10084C00A330F9009E30FA000A128A15F6260A1215
:10085C008A11FC010314FC0D382C7C08023A031994
:10086C001C2C262C83120313081A3D2C3E2C042C12
:10087C00402C402C081E432C442C402C5B2C5B2C15
:10088C008312031388150A128A1101210A128A1184
:10089C00042C8312031388110A128A1101210A12E3
:1008AC008A11FC010314FC0D042C7C08023A031978
:1008BC00462C4F2C042C042C042C080083120313FC
:1008CC00A8010314A80D0A128A15E6250A128A112A
:1008DC0000300A128A1528260A128A11BD30F90036
:1008EC009F30FA000A128A15F6260A128A11143061
:1008FC000A128A1528260A128A11A330F9009E3092
:10090C00FA000A128A15F6260A128A118D2C831205
:10091C000313881A922C932CC52C952C952C881E7D
:10092C00982C992C952C9A2C0130FD007D08A80749
:10093C0014300A128A1528260A128A11BE2C43304A
:10094C00F9009E30FA000A128A15F6260A128A114C
:10095C00C52CA330F9009E30FA000A128A15F6262F
:10096C000A128A1183120313A8010314A80DC52CB3
:10097C00831203132808023A0319A52CAF2C8312F7
:10098C000313081ACA2CCB2C8D2CCD2CCD2C081E65
:10099C00D02CD12CCD2CE42CE42C0A128A15272730
:1009AC000A128A118D2C0A128A1177250A128A11C1
:1009BC0083120313A8010314A80D8D2C2808023AE6
:1009CC000319D32CD92C8D2C8D2C8D2C080083162F
:1009DC000313850186018701303088008901831259
:1009EC0003138501880189010630831603139F00C8
:1009FC0083120313881505140714091501300A1204
:100A0C008A150F260A128A1102300A128A150F262D
:100A1C000A128A1106300A128A150F260A128A1136
:100A2C000C300A128A150F260A128A1138300A1253
:100A3C008A150F260A128A1183160313811281114B
:100A4C000115811401140A128A15B2250A128A1191
:100A5C0083120313891080300A128A15C1250A12D9
:100A6C008A1100300A128A15C1250A128A118312C2
:100A7C00031389140A30F0000030F1000A128A15B1
:100A8C00A4260A128A11831203138910C0300A1289
:100A9C008A15C1250A128A1100300A128A15C1253D
:100AAC000A128A118312031389140A30F0000030E1
:100ABC00F1000A128A15A4260A128A118312031352
:100ACC008910E0300A128A15C1250A128A110030E9
:100ADC000A128A15C1250A128A118312031389146A
:100AEC000800831203138910E0300A128A15C125FD
:100AFC000A128A1100300A128A15C1250A128A11AB
:100B0C008312031389140A30F0000030F1000A122A
:100B1C008A15A4260A128A11831203138910203015
:100B2C000A128A15C1250A128A1100300A128A1576
:100B3C00C1250A128A118312031389140A30F0009A
:100B4C000030F1000A128A15A4260A128A118312A7
:100B5C000313891080300A128A15C1250A128A11D2
:100B6C0000300A128A15C1250A128A118312031346
:100B7C0089140A30F0000030F1000A128A15A426FC
:100B8C000A128A11831203138811891020300A1259
:100B9C008A15C1250A128A1100300A128A15C1253C
:100BAC000A128A118312031389140A30F0000030E0
:100BBC00F1000A128A15A4260A128A118312031351
:100BCC008910A2300A128A15C1250A128A11003026
:100BDC000A128A15C1250A128A1120300A128A15A6
:100BEC00C1250A128A118312031389140A30F000EA
:100BFC000030F1000A128A15A4260A128A110A1270
:100C0C008A115C230A128A11080083120313AC01A7
:100C1C000A128A11ED240A128A110A128A15E62583
:100C2C000A128A1100300A128A1528260A128A1111
:100C3C005A30F9009F30FA000A128A15F6260A1269
:100C4C008A1114300A128A1528260A128A11831264
:100C5C0003132C08AB002B07203E840083130008E1
:100C6C00F900840A0008FA000A128A15F6260A12FC
:100C7C008A11402E83120313881A452E462E7B2E82
:100C8C00482E482E881E4B2E4C2E482E4D2E0130B1
:100C9C00AB002B08AC0703302C02031C562E572E2E
:100CAC00592EAC01592E14300A128A1528260A1214
:100CBC008A11831203132C08AB002B07203E8400EF
:100CCC0083130008F900840A0008FA000A128A1536
:100CDC00F6260A128A11DF30F9009E30FA000A1249
:100CEC008A15F6260A128A117B2E83120313081A10
:100CFC00802E812E402E832E832E081E862E872E2C
:100D0C00832E9E2E9E2E0A128A1151270A128A11A8
:100D1C00402E0A128A115A220A128A11402E0A12E5
:100D2C008A11AC260A128A1183120313AC01402ECD
:100D3C002C08013A0319892E033A03198F2E952E8C
:100D4C00402E402E402E0A128A11002883120313C3
:100D5C00AA010314AA0D891080300A128A15C12524
:100D6C000A128A1100300A128A15C1250A128A1138
:100D7C008312031389140A30F0000030F1000A12B8
:100D8C008A15A4260A128A118312031388150A12D3
:100D9C008A15E6250A128A1100300A128A152826AD
:100DAC000A128A114E30F9009F30FA000A128A1585
:100DBC00F6260A128A1114300A128A1528260A12EB
:100DCC008A116630F9009F30FA000A128A15F6264D
:100DDC000A128A11F12E83120313881AF62EF72E9B
:100DEC00292FF92EF92E881EFC2EFD2EF92EFE2E03
:100DFC000130A9002908AA0714300A128A152826DE
:100E0C000A128A11222F9230F9009F30FA000A122E
:100E1C008A15F6260A128A11292F6630F9009F309E
:100E2C00FA000A128A15F6260A128A118312031383
:100E3C00AA010314AA0D292F831203132A08023ABC
:100E4C000319092F132F83120313081A2E2F2F2F78
:100E5C00F12E312F312F081E342F352F312F482FE3
:100E6C00482F0A128A1164240A128A11F12E0A12CE
:100E7C008A11DB220A128A1183120313AA010314AA
:100E8C00AA0DF12E2A08023A0319372F3D2FF12E05
:100E9C00F12EF12E080083120313A8010314A80DE0
:100EAC008910E0300A128A15C1250A128A11003005
:100EBC000A128A15C1250A128A1183120313891486
:100ECC000A128A15E6250A128A1100300A128A15AE
:100EDC0028260A128A114E30F9009F30FA000A12A5
:100EEC008A15F6260A128A1114300A128A15282637
:100EFC000A128A118730F9009F30FA000A128A15FB
:100F0C00F6260A128A118A2F83120313881A8F2F3E
:100F1C00902FCF2F922F922F881E952F962F922F96
:100F2C00972F0130FD007D08A80714300A128A158E
:100F3C0028260A128A11C52F0630F9009F30FA00B4
:100F4C000A128A15F6260A128A11CF2F1E30F900C2
:100F5C009F30FA000A128A15F6260A128A11CF2F30
:100F6C002A30F9009F30FA000A128A15F6260A1266
:100F7C008A1183120313A8010314A80DCF2F831217
:100F8C0003132808023A0319A22F013A0319AC2FB4
:100F9C00B62F83120313081AD42FD52F8A2FD72FCD
:100FAC00D72F081EDA2FDB2FD72FF42FF42F0A128E
:100FBC008A1545260A128A118A2F0A128A11DD23F4
:100FCC000A128A118A2F0A128A1564260A128A11A9
:100FDC0083120313A8010314A80D8A2F2808023AC0
:100FEC000319DD2F013A0319E32FE92F8A2F8A2FDA
:040FFC008A2F080030
:101B54001F349E3412349E342A349E3400340034AC
:101B64008316031387129413141383120313141686
:101B74009411141194101410941394160800F00086
:101B84007008831203139300C72D83160313141CC8
:101B9400CC2DCD2DC72DCE2D831203131308D22D9A
:101BA40008007E088A007F0882000A128A15D3255D
:101BB4000A128A158000840A04087D060319003479
:101BC400FF0A0319FE0AD72D01300A128A150F26BF
:101BD4000A128A150030F3000030F2000030F100E0
:101BE4003230F0000A128A15C6260A128A15080035
:101BF400AD01AE01AF0183132830FD000D30FE00AE
:101C0400AA30FF00203084000A128A15D7250A1250
:101C14008A1583010A128A110B2EF800831203130A
:101C24000813780886000030F3000030F20000301A
:101C3400F1003230F0000A128A15C6260A128A15FB
:101C44000A128A1583260A128A150800FA0010302F
:101C54007A0203182E2E2F2E372E7A08803E0A126F
:101C64008A150F260A128A15442E7A08EC3EF900CA
:101C74007908FA007A08C03E0A128A150F260A1259
:101C84008A15442E080083120313091114300A1212
:101C94008A1528260A128A151230F9009F30FA0094
:101CA4000A128A15F6260A128A156430F0000030EA
:101CB400F1000A128A15A4260A128A158312031344
:101CC4000915080083120313071014300A128A1529
:101CD40028260A128A153630F9009F30FA000A12B3
:101CE4008A15F6260A128A152C30F0000130F1000C
:101CF4000A128A15A4260A128A15831203130714DA
:101D040008008312031388170030F3000030F20038
:101D14000030F1003230F0000A128A15C6260A1289
:101D24008A158312031388130030F3000030F20085
:101D34000030F1003230F0000A128A15C6260A1269
:101D44008A15080071087004031DA92EAA2EAC2E52
:101D5400C52EC52E831203138101B12EB12EC330BB
:101D64000102031CB62EB72EB12EB82E0130F0029C
:101D74000030031CF103F10271087004031DC32E2B
:101D8400C42EAC2EC52E08007308720471047004AE
:101D9400031DCD2ECE2ED02EF52EF52E0130F400BF
:101DA4000030F5000030F6000030F7007408F0024F
:101DB4007508031C750FDF2EE02EF1027608031C54
:101DC400760FE52EE62EF2027708031C770FEB2E32
:101DD400EC2EF3027308720471047004031DF32ED5
:101DE400F42ED02EF52E08000E2F7A08831203133A
:101DF400FF00790884000A168A1500260A128A153B
:101E04000A128A1106200A128A150130F9070318EA
:101E1400FA0A0030FA070E2F7A0879040319132FEF
:101E2400142F262F7A0883120313FF0079088400E5
:101E34000A168A1500260A128A150038031D232F54
:101E4400242FF72E262F262F080083120313891020
:101E5400E0300A128A15C1250A128A1500300A12C6
:101E64008A15C1250A128A158312031389140A30AC
:101E7400F0000030F1000A128A15A4260A128A150D
:101E840083120313891080300A128A15C1250A129D
:101E94008A1500300A128A15C1250A128A1583127E
:101EA400031389140A30F0000030F1000A128A1575
:101EB400A4260A128A158312031388150A128A119A
:101EC4005C230A128A1508008312031389108030D8
:101ED4000A128A15C1250A128A1500300A128A15B7
:101EE400C1250A128A158312031389140A30F000DB
:101EF4000030F1000A128A15A4260A128A158312E8
:101F040003138910C2300A128A15C1250A128A15D0
:101F140000300A128A15C1250A128A158312031386
:101F240089146430F0000030F1000A128A15A426E6
:101F34000A128A150A128A15E6250A128A1514301D
:101F44000A128A1528260A128A15B330F9009E301F
:101F5400FA000A128A15F6260A128A15B12FB12F31
:101F6400080083120313891080300A128A15C125D0
:101F74000A128A1500300A128A15C1250A128A1516
:101F84008312031389140A30F0000030F1000A129E
:101F94008A15A4260A128A15831203138910423063
:101FA4000A128A15C1250A128A1500300A128A15E6
:101FB400C1250A128A158312031389146430F000B0
:101FC4000030F1000A128A15A4260A128A150A1290
:101FD4008A15E6250A128A1514300A128A1528264B
:101FE4000A128A15B630F9009F30FA000A128A15CF
:0C1FF400F6260A128A15FE2FFE2F0800A8
:103C0000FF1B0A2E83137F1883170008840A0319E9
:103C1000FF0A08007F087F398A000408840A031914
:103C2000FF0A820032342E345334543441344E343B
:103C3000443441344C344F344E3445340034313400
:103C40002E3453345034493420344D344F344434BA
:103C50004534003433342E344534523441345334F3
:103C6000453400347334653463346F346E346434F3
:103C700020346D346534733473346134673465349F
:103C80002A342A34003432342E3420344D3449342A
:103C90004334203420342034203420342034203461
:103CA00020342034003431342E34203445347234FE
:103CB000613473346534203420342034203420348B
:103CC00020342034003431342E3420344D346534E3
:103CD00073347334613467346534203431342034C0
:103CE00020342034003466346934723473347434CC
:103CF00020346D346534733473346134673465341F
:103D00002A342A3400342A342A3472346534633431
:103D10006F347234643469346E34673420347434EC
:103D200068346534003432342E34203447346C34F3
:103D30006F34623461346C3420344534723461340D
:103D400073346534003431342E34203441346E34CD
:103D500061346C346F346734203449346E347034D9
:103D60007534743400344D3465346D346F347234CA
:103D70007934203443346C346534613472346534BE
:103D800064340034733465346C34653463347434AF
:103D9000203474346F342034733474346F3470349A
:103DA00000342A342A3470346C3461347934693400
:103DB0006E3467342034743468346534003420340D
:103DC0002034203420342034203420342034203453
:103DD000203420342034003431342E3420344D3417
:103DE000653473347334613467346534203431346A
:103DF000003432342E3420344D346534733473340B
:103E000061346734653420343234003432342E3433
:103E1000203450346C3461347934203420342034EC
:103E2000203400342A342A3470346C3461347934C8
:103E30002A342A34203420342034003433342E34CD
:103E400020345234653463346F3472346434203433
:103E50002034003431342E34203446346F347234FC
:103E60007734613472346434203400342A342A3490
:103E700066346F34723477346134723464342A3483
:103E80002A3400347234653463346F3472346434E9
:103E900069346E3467342A342A3400345334773426
:103EA000693474346334683420346D346F3464346A
:103EB00065340034533465346C346534633474349D
:103EC00020346D346F3464346534003431342E342E
:103ED000203450344C34413459342034203420348C
:103EE00000342A342A342A34683461346C3474340B
:103EF0002A342A342A3400342A342A347234653479
:103F000063346F34723464342A342A3400343134E4
:103F10002E34203446346F34723477346134723442
:103F20006434003432342E34203452344534433433
:103F30004F34523444340034443465346334693487
:103F4000733469346F346E3400344C346F346334FA
:103F50006134743469346F346E3400342A342A3452
:103F6000733474346F347034203400344534723414
:103F7000613473346534643400344F3470347434D1
:083F800069346F346E34003423
:02400E00323F3F
:00000001FF
