:060000000A128A11ED2F27
:10001200831203138910E0300A128A15C8260A12C5
:100022008A1100300A128A15C8260A128A1183120E
:10003200031389140A30F0000030F1000A128A1505
:10004200F5260A128A1183120313891080300A12CC
:100052008A15C8260A128A1100300A128A15C82681
:100062000A128A118312031389140A30F000003035
:10007200F1000A128A15F5260A128A118312031355
:1000820088150A128A11A12108008312031389100C
:1000920080300A128A15C8260A128A1100300A1202
:1000A2008A15C8260A128A118312031389140A3088
:1000B200F0000030F1000A128A15F5260A128A11A0
:1000C200831203138910C2300A128A15C8260A1233
:1000D2008A1100300A128A15C8260A128A1183125E
:1000E200031389146430F0000030F1000A128A15FB
:1000F200F5260A128A110A128A1507270A128A118C
:1001020014300A128A1519270A128A11B330F9001B
:100112008830FA000A128A15D9270A128A11902801
:1001220083120313891080300A128A15C8260A1214
:100132008A1100300A128A15C8260A128A118312FD
:10014200031389140A30F0000030F1000A128A15F4
:10015200F5260A128A1183120313891042300A12F9
:100162008A15C8260A128A1100300A128A15C82670
:100172000A128A118312031389146430F0000030CA
:10018200F1000A128A15F5260A128A110A128A1534
:1001920007270A128A1114300A128A1519270A121D
:1001A2008A11B630F9008930FA000A128A15D92765
:1001B2000A128A11DB2883120313081ADC28081A90
:1001C2000829081EE22805100A128A1507270A12B2
:1001D2008A1100300A128A1519270A128A117C30F4
:1001E200F9008930FA000A128A15D9270A128A11EF
:1001F20014300A128A1519270A128A11C230F9001C
:100202008830FA000A128A15D9270A128A11831233
:100212000313881A0829881ADC28881E0E29051457
:100222000A128A1507270A128A1100300A128A1541
:1002320019270A128A11AE30F9008930FA000A121F
:100242008A15D9270A128A1114300A128A15192717
:100252000A128A114230F9008930FA000A128A150C
:10026200D9270A128A113429FC01FC0A0A128A15BA
:1002720007270A128A1100300A128A1519270A1250
:100282008A119C30F9008930FA000A128A15D9279E
:100292000A128A1114300A128A1519270A128A11AF
:1002A2005330F9008830FA000A128A15D9270A1247
:1002B2008A1183120313881A8629881E5E29013047
:1002C200FB007B08FC0714300A128A1519270A1250
:1002D2008A1181299330F9008830FA000A128A15AE
:1002E200D9270A128A1186295330F9008830FA0078
:1002F2000A128A15D9270A128A11FC01FC0A8629D8
:100302007C08023A03196B29752983120313081A10
:100312005A29081A9B298A290A128A1146200A1286
:100322008A115A290A128A1191200A128A11FC0191
:10033200FC0A5A297C08023A03198D2993295A2961
:10034200FC01FC0A0A128A1507270A128A110030D8
:100352000A128A1519270A128A11A530F900893062
:10036200FA000A128A15D9270A128A1114300A12BF
:100372008A1519270A128A11EC30F9008830FA001E
:100382000A128A15D9270A128A1183120313881AAC
:10039200F229881ECA290130FB007B08FC071430B1
:1003A2000A128A1519270A128A11ED29F930F90061
:1003B2008830FA000A128A15D9270A128A11F229FC
:1003C200EC30F9008830FA000A128A15D9270A128D
:1003D2008A11FC01FC0AF2297C08023A0319D72986
:1003E200E12983120313081AC629081A072AF629D3
:1003F2000A128A11C9230A128A11C6290A128A11FB
:100402003B240A128A11FC01FC0AC6297C08023A22
:100412000319F929FF29C629FC01FC0A0A128A15C7
:1004220007270A128A1100300A128A1519270A129E
:100432008A11A530F9008930FA000A128A15D927E3
:100442000A128A1114300A128A1519270A128A11FD
:100452006330F9008830FA000A128A15D9270A1285
:100462008A1183120313881A5E2A881E362A0130E3
:10047200FB007B08FC0714300A128A1519270A129E
:100482008A11592AF930F9008830FA000A128A15BD
:10049200D9270A128A115E2A6330F9008830FA00DD
:1004A2000A128A15D9270A128A11FC01FC0A5E2A4D
:1004B2007C08023A0319432A4D2A83120313081AAD
:1004C200322A081A732A622A0A128A1179220A1215
:1004D2008A11322A0A128A11E8220A128A11FC01AE
:1004E200FC0A322A7C08023A0319652A6B2A322A4C
:1004F20083120313891001300A128A15C8260A12C0
:100502008A1100300A128A15C8260A128A11EE30A0
:100512000A128A15C8260A128A1180300A128A150E
:10052200C8260A128A11BB300A128A15C8260A1274
:100532008A1140300A128A15C8260A128A1100301E
:100542000A128A15C8260A128A1183120313891401
:100552000A128A1507270A128A1100300A128A150E
:1005620019270A128A11D130F9008830FA000A12CA
:100572008A15D9270A128A1114300A128A151927E4
:100582000A128A113230F9008830FA000A128A15EA
:10059200D9270A128A11F830F0001130F1000A123C
:1005A2008A15F5260A128A110A128A1507270A12D3
:1005B2008A1100300A128A1519270A128A1171301B
:1005C200F9008930FA000A128A15D9270800831225
:1005D2000313891001300A128A15C8260A128A11D9
:1005E20000300A128A15C8260A128A1108300A1225
:1005F2008A15C8260A128A1100300A128A15C826DC
:100602000A128A116E300A128A15C8260A128A1133
:1006120080300A128A15C8260A128A1100300A127C
:100622008A15C8260A128A118312031389140A1220
:100632008A1507270A128A1100300A128A15192709
:100642000A128A11D130F9008830FA000A128A158A
:10065200D9270A128A1114300A128A1519270A1286
:100662008A117330F9008830FA000A128A15D927E4
:100672000A128A11F830F0001130F1000A128A15BC
:10068200F5260A128A110A128A1507270A128A11F6
:1006920000300A128A1519270A128A117130F900DC
:1006A2008930FA000A128A15D9270800FC01FC0ACF
:1006B2000A128A1507270A128A1100300A128A15AD
:1006C20019270A128A11BD30F9008930FA000A127C
:1006D2008A15D9270A128A1114300A128A15192783
:1006E2000A128A11A330F9008830FA000A128A1518
:1006F200D9270A128A1183120313881AA82B881E7B
:10070200802B0130FB007B08FC0714300A128A158B
:1007120019270A128A11A32B4330F9008830FA00F4
:100722000A128A15D9270A128A11A82BA330F900B6
:100732008830FA000A128A15D9270A128A11FC0196
:10074200FC0AA82B7C08023A03198D2B972B8312E3
:100752000313081A7C2B081AC32BAC2B8312031326
:1007620088150A128A11DC200A128A117C2B831244
:10077200031388110A128A11DC200A128A11FC0161
:10078200FC0A7C2B7C08023A0319AF2BB82B7C2B7A
:1007920083120313891081300A128A15C8260A129D
:1007A2008A1100300A128A15C8260A128A11EE30FE
:1007B2000A128A15C8260A128A1180300A128A156C
:1007C200C8260A128A11BB300A128A15C8260A12D2
:1007D2008A1140300A128A15C8260A128A1100307C
:1007E2000A128A15C8260A128A118312031389145F
:1007F2000A128A1507270A128A1100300A128A156C
:1008020019270A128A118330F9008830FA000A1275
:100812008A15D9270A128A1114300A128A15192741
:100822000A128A113230F9008830FA000A128A1547
:10083200D9270A128A11F830F0001130F1000A1299
:100842008A15F5260A128A110A128A1507270A1230
:100852008A1100300A128A1519270A128A11713078
:10086200F9008930FA000A128A15D9278312031374
:100872008815080083120313891081300A128A1521
:10088200C8260A128A1100300A128A15C8260A12CC
:100892008A1108300A128A15C8260A128A110030F3
:1008A2000A128A15C8260A128A116E300A128A158D
:1008B200C8260A128A1180300A128A15C8260A121C
:1008C2008A1100300A128A15C8260A128A11831266
:1008D200031389140A128A1507270A128A11003093
:1008E2000A128A1519270A128A118330F9008830F0
:1008F200FA000A128A15D9270A128A1114300A122A
:100902008A1519270A128A117330F9008830FA0001
:100912000A128A15D9270A128A11F830F00011300A
:10092200F1000A128A15F5260A128A110A128A158C
:1009320007270A128A1100300A128A1519270A1289
:100942008A117130F9008930FA000A128A15D92702
:10095200831203138815080083120313A801A80A3F
:100962000A128A1507270A128A1100300A128A15FA
:1009720019270A128A11BD30F9008930FA000A12C9
:100982008A15D9270A128A1114300A128A151927D0
:100992000A128A11A330F9008830FA000A128A1565
:1009A200D9270A128A1183120313881A042D881E6A
:1009B200D82C0130FD007D08A80714300A128A15D0
:1009C20019270A128A11FD2C4330F9008830FA00E7
:1009D2000A128A15D9270A128A11042DA330F900A6
:1009E2008830FA000A128A15D9270A128A1183124C
:1009F2000313A801A80A042D831203132808023A3C
:100A02000319E52CEF2C83120313081AD42C081AAD
:100A12001B2D082D0A128A1109200A128A11D42CC0
:100A22000A128A11C1260A128A1183120313A8011B
:100A3200A80AD42C2808023A03190B2D112DD42C04
:100A420083160313850186018701303088008901EE
:100A5200831203138501880189010630831603136B
:100A62009F0083120313881505140714091501301A
:100A72000A128A152F270A128A1102300A128A15BF
:100A82002F270A128A1106300A128A152F270A12F4
:100A92008A110C300A128A152F270A128A1138304D
:100AA2000A128A152F270A128A118316031381123A
:100AB20081110115811401140A128A15D5260A1210
:100AC2008A1183120313891080300A128A15C826EC
:100AD2000A128A1100300A128A15C8260A128A11CD
:100AE2008312031389140A30F0000030F1000A1255
:100AF2008A15F5260A128A11831203138910C0304F
:100B02000A128A15C8260A128A1100300A128A1598
:100B1200C8260A128A118312031389140A30F000BC
:100B22000030F1000A128A15F5260A128A11831280
:100B320003138910E0300A128A15C8260A128A1194
:100B420000300A128A15C82683120313891408007A
:100B520083120313AC010A128A1121250A128A1187
:100B62000A128A1507270A128A1100300A128A15F8
:100B720019270A128A115A30F9008930FA000A122A
:100B82008A15D9270A128A1114300A128A151927CE
:100B92000A128A11831203132C08AB002B07203E82
:100BA200840083130008F900840A0008FA000A127C
:100BB2008A15D9270A128A1183120313881A0C2E56
:100BC200881EE12D0130AB002B08AC0703302C024C
:100BD2000318AC0114300A128A1519270A128A1155
:100BE200831203132C08AB002B07203E84008313CF
:100BF2000008F900840A0008FA000A128A15D927A7
:100C02000A128A11DF30F9008830FA000A128A15B6
:100C1200D9270A128A1183120313081ADD2D081A22
:100C2200282E102E0A128A1153270A128A11DD2D3C
:100C32000A128A1135210A128A11DD2D0A128A112D
:100C420031260A128A1183120313AC01DD2D2C08FE
:100C5200013A0319132E033A0319192E1F2EDD2D03
:100C620083120313AA01AA0A891080300A128A1574
:100C7200C8260A128A1100300A128A15C8260A12D8
:100C82008A118312031389140A30F0000030F10034
:100C92000A128A15F5260A128A118312031388157D
:100CA2000A128A1507270A128A1100300A128A15B7
:100CB20019270A128A114E30F9008930FA000A12F5
:100CC2008A15D9270A128A1114300A128A1519278D
:100CD2000A128A116630F9008930FA000A128A155E
:100CE200D9270A128A1183120313881AA42E881E86
:100CF200782E0130A9002908AA0714300A128A1591
:100D020019270A128A119D2E9230F9008930FA00B1
:100D12000A128A15D9270A128A11A42E6630F900FE
:100D22008930FA000A128A15D9270A128A11831207
:100D32000313AA01AA0AA42E831203132A08023A51
:100D42000319852E8F2E83120313081A742E081A84
:100D5200BB2EA82E0A128A11AD240A128A11742EF1
:100D62000A128A110D220A128A1183120313AA018E
:100D7200AA0A742E2A08023A0319AB2EB12E742E37
:100D8200831203138910E0300A128A15C8260A1248
:100D92008A1100300A128A15C8260A128A11831291
:100DA200031389140A30F0000030F1000A128A1588
:100DB200F5260A128A1183120313891020300A12AF
:100DC2008A15C8260A128A1100300A128A15C82604
:100DD2000A128A118312031389140A30F0000030B8
:100DE200F1000A128A15F5260A128A1183120313D8
:100DF200891080300A128A15C8260A128A11003018
:100E02000A128A15C8260A128A1183120313891438
:100E12000A30F0000030F1000A128A15F5260A1293
:100E22008A11831203138811891020300A128A153D
:100E3200C8260A128A1100300A128A15C8260A1216
:100E42008A118312031389140A30F0000030F10072
:100E52000A128A15F5260A128A11831203138910BF
:100E6200A2300A128A15C8260A128A1100300A1202
:100E72008A15C8260A128A1120300A128A15C82633
:100E82000A128A118312031389140A30F000003007
:100E9200F1000A128A15F5260A128A110A128A111B
:100EA200A121080083120313A801A80A8910E030C7
:100EB2000A128A15C8260A128A1100300A128A15E5
:100EC200C8260A128A118312031389140A128A1578
:100ED20007270A128A1100300A128A1519270A12E4
:100EE2008A114E30F9008930FA000A128A15D92780
:100EF2000A128A1114300A128A1519270A128A1143
:100F02008730F9008930FA000A128A15D9270A12A5
:100F12008A1183120313881AC72F881E8E2F01305D
:100F2200FD007D08A80714300A128A1519270A1233
:100F32008A11BD2F0630F9008930FA000A128A158B
:100F4200D9270A128A11C72F1E30F9008930FA00F8
:100F52000A128A15D9270A128A11C72F2A30F900D4
:100F62008930FA000A128A15D9270A128A118312C5
:100F72000313A801A80AC72F831203132808023AF1
:100F820003199B2F013A0319A52FAF2F83120313C5
:100F9200081A8A2F081AE42FCB2F0A128A155D2706
:100FA2000A128A118A2F0A128A1157230A128A11E7
:100FB2008A2F0A128A157A270A128A1183120313B8
:100FC200A801A80A8A2F2808023A0319CE2F013A4B
:100FD2000319D42FDA2F8A2FAD01AE01AF0183138B
:100FE2002830FD000E30FE00C030FF0020308400AB
:100FF2000A128A15E82683010A128A11A92DFF1BFB
:101002000A2883137F1883170008840A0319FF0A2A
:1010120008007F087F398A000408840A0319FF0A3E
:10102200820032342E345334543441344E344434F6
:1010320041344C344F344E344534003431342E3440
:1010420053345034493420344D344F3444344534CD
:10105200003433342E34453452344134533445341D
:1010620000347334653463346F346E346434203442
:101072006D346534733473346134673465342A34BF
:101082002A34003432342E3420344D34493443343B
:1010920020342034203420342034203420342034AE
:1010A2002034003431342E342034453472346134E7
:1010B20073346534203420342034203420342034F6
:1010C2002034003431342E3420344D3465347334BA
:1010D200733461346734653420343134203420343D
:1010E20020340034663469347234733474342034F6
:1010F2006D346534733473346134673465342A343F
:101102002A3400342A342A347234653463346F3416
:101112007234643469346E3467342034743468341D
:101122006534003432342E34203447346C346F3416
:10113200623461346C342034453472346134733433
:101142006534003431342E34203441346E34613409
:101152006C346F346734203449346E3470347534EF
:10116200743400344D3465346D346F3472347934F0
:10117200203443346C3465346134723465346434FD
:101182000034733465346C3465346334743420341D
:1011920074346F342034733474346F3470340034E4
:1011A2002A342A3470346C346134793469346E34BC
:1011B2006734203474346834653400342034203485
:1011C200203420342034203420342034203420347D
:1011D20020342034003431342E3420344D346534FC
:1011E20073347334613467346534203431340034F9
:1011F20032342E3420344D346534733473346134D4
:101202006734653420343234003432342E3420349E
:1012120050346C3461347934203420342034203416
:1012220000342A342A3470346C34613479342A34E8
:101232002A34203420342034003433342E34203401
:101242005234653463346F3472346434203420345D
:10125200003431342E34203446346F3472347734CF
:10126200613472346434203400342A342A346634CB
:101272006F34723477346134723464342A342A34E9
:1012820000347234653463346F34723464346934D4
:101292006E3467342A342A34003453347734693450
:1012A20074346334683420346D346F346434653498
:1012B2000034533465346C3465346334743420340C
:1012C2006D346F3464346534003431342E34203458
:1012D20050344C34413459342034203420340034D6
:1012E2002A342A342A34683461346C3474342A340B
:1012F2002A342A3400342A342A347234653463346A
:101302006F34723464342A342A34003431342E3443
:10131200203446346F347234773461347234643436
:10132200003432342E3420345234453443344F3472
:10133200523444340034443465346334693473348D
:1013420069346F346E3400344C346F346334613436
:10135200743469346F346E3400342A342A3473346A
:1013620074346F3470342034003445347234613450
:1013720073346534643400344F34703474346934F3
:061382006F346E340034EC
:101D80001F348834123488342A34883400340034C0
:101D9000F000700883120313930083160313141CBE
:101DA000CD2E831203131308080083160313871222
:101DB0009413141383120313141694111411941012
:101DC00014109413941608007E088A007F0882007D
:101DD000E4260A128A158000840A04087D06031985
:101DE0000034FF0A0319FE0AE82E71087004031973
:101DF0000800831203138101C3300102031CFC2E6F
:101E00000130F0020030031CF103F102F52E013025
:101E10000A128A152F270A128A150030F3000030A3
:101E2000F2000030F1003230F0000A128A15B627B5
:101E30000800FA0010307A020318242F7A08803E36
:101E40000A128A152F2708007A08EC3EF900790853
:101E5000FA007A08C03E0A128A152F270800F800F7
:101E6000831203130813780886000030F300003053
:101E7000F2000030F1003230F0000A128A15B62765
:101E80000A128A150A128A1597270800F800831289
:101E900003130817780886000030F3000030F200C2
:101EA0000030F1003230F0000A128A15B6270A120B
:101EB0008A150A128A15972708008312031309113D
:101EC00014300A128A1519270A128A151230F900DD
:101ED0008930FA000A128A15D9270A128A15643045
:101EE000F0000030F1000A128A15F5268312031360
:101EF0000915080083120313071014300A128A15FB
:101F000019270A128A153630F9008930FA000A12A8
:101F10008A15D9270A128A152C30F0000130F100F9
:101F20000A128A15F5268312031307140800831278
:101F3000031388170030F3000030F2000030F10086
:101F40003230F0000A128A15B6270A128A15831257
:101F5000031388130030F3000030F2000030F1006A
:101F60003230F0000A128A15B6270800730872048E
:101F700071047004031908000130F4000030F5000A
:101F80000030F6000030F7007408F0027508031CFA
:101F9000750FCB2FCC2FF1027608031C760FD12FB3
:101FA000D22FF2027708031C770FD72FB62FF30238
:101FB000B62F7A087904031908007A0883120313EC
:101FC000FF00790884000A128A1500200A128A1577
:101FD0000038031908007A0883120313FF007908F8
:101FE00084000A128A1500200A128A150A128A151C
:101FF00046270A128A150130F9070318FA0AD92F61
:02400E0032FF7F
:00000001FF
